:020000020000FC
:020000000EC030
:0200120040C0EC
:10001C0045C00FE50DBF04E00EBF0FE007BB01E0CC
:10002C0008BB0EE304BB002705BB0FE701BB002791
:10003C0002BB222701E003BF002702BF00E407B97F
:10004C000FEE06B9789405B30E71000F0E710030E7
:10005C0009F402E0A99B04C0A99831D0AA9AF3CF65
:10006C00AA9B04C0AA982BD0AB9AEDCFAB9B04C033
:10007C00AB9825D0AC9AE7CFAC9B04C0AC981FD002
:10008C00A99AE1CFE9CFDFCF68B3660F6F7060300C
:10009C0009F461E068BB662762BF1895E4B13327A9
:1000AC00E65010F03395FCCF383120F0E1E0E9BF99
:1000BC00AD9A03C0EE27E9BFAD9837D01895023042
:1000CC0019F4122F12950AC0043011F4122F06C025
:1000DC00083011F413E627C019E325C01F70103047
:1000EC0011F41FE320C0113011F416E01CC01230C3
:1000FC0011F41BE518C0133011F41FE414C01430B4
:10010C0011F416E610C0153011F41DE60CC01630B3
:10011C0011F41DE708C0173009F405C0183011F4AC
:10012C001FE701C01FE612BB08954427343610F0B8
:10013C0029E908C03A3018F03A504395FBCF429564
:06014C00342B232F08955F
:00000001FF
