:020000020000FC
:0200000006C038
:10000A0048C085C00FED0DBF0FE307BB0FE701BB6B
:10001A00002702BB00936000009361000093620016
:10002A0002E003BF002702BF03E00EBD0FEF0DBDC4
:10003A0000E70CBD02E809BF789408B3000F0F73FC
:10004A00003009F401E0C09B04C0C09875D0C19A81
:10005A00F4CFC19B04C0C1986FD0C29AEECFC29BA5
:10006A0004C0C29869D0C39AE8CFC39B04C0C3989E
:10007A0063D0C49AE2CFC49B04C0C4985DD0C59A29
:10008A00DCCFC59B04C0C59857D0C09AD6CFDDCF68
:10009A00D4CF709162007395F72FFF70FA3009F48C
:1000AA0003C0709362002EC0707FF0E17F0F70363C
:1000BA00C0F3772770936200709161007395F72FF0
:1000CA00FF70FA3009F403C0709361001BC0707F9F
:1000DA00F0E17F0F7036C0F377277093610070915B
:1000EA0060007395F72FFF70FA3009F403C070931C
:1000FA00600008C0707FF0E17F0F7432C0F3772789
:10010A0070936000FFEFFDBDF0E7FCBD1895B6994E
:10011A0008C0309160003395343209F433273093A4
:10012A006000B79908C0309161003395303609F400
:10013A003327309361001895013021F41091600043
:10014A00129518C0023019F41091600013C00430DF
:10015A0021F41091610012950DC0083019F4109124
:10016A00610008C0003121F410916200129502C0AA
:10017A00109162001F70103011F41FE320C011307B
:10018A0011F416E01CC0123011F41BE518C013302C
:10019A0011F41FE414C0143011F416E610C015301F
:1001AA0011F41DE60CC0163011F41DE708C0173013
:1001BA0009F405C0183011F41FE701C01FE612BB8D
:0201CA00089596
:00000001FF
