:1000000014C02DC02CC02BC02AC095C028C027C04A
:1000100026C025C024C02CC02DC02EC02FC030C08B
:1000200031C032C033C034C036C011241FBECFED42
:10003000CDBF10E0A0E6B0E0EAE9F1E003C0C8956A
:1000400031960D92A036B107D1F710E0A0E6B0E0EE
:1000500001C01D92A636B107E1F720D09CC0D0CFD9
:10006000E82FF0E0EA30F105C0F4E55FFF4F0994B6
:100070008FE30FC086E00DC08BE50BC08FE409C095
:1000800086E607C08DE605C08DE703C087E001C0A6
:100090008FE782BB08958FE682BB0895DF92EF92CF
:1000A000FF920F931F938FED8DBF9FEF97BB81E062
:1000B00088BB91BB12BA12BE82E08EBD80E889BFB8
:1000C00090E2D92EEE24E39480E1F82E02E018E0CD
:1000D00088B390E08F73907084309105D9F08530AB
:1000E000910534F48130910561F0029789F70DC0D4
:1000F00080319105B9F080329105C1F0089741F740
:100100000DC012BA08BB81E014C012BA84E088BBEB
:1001100082E00FC012BA18BB83E00BC012BAF8BA63
:1001200084E007C012BAD8BA85E003C012BAE8BAB0
:1001300080E096DFCDCF1F920F920FB60F92112461
:100140002F933F934F935F936F937F938F939F93DF
:10015000AF93BF93EF93FF93809165008F5F809380
:1001600065008A3010F0109265008091650078DF9C
:100170001DBC1CBCFF91EF91BF91AF919F918F91DE
:100180007F916F915F914F913F912F910F900FBE93
:0A0190000F901F901895F894FFCF10
:00000001FF
