:020000020000FC
:0200000002C03C
:1000040053C00FEF07BB01BB01E208BB002702BBD3
:100014002227332700E702BF03E003BF02E009BF42
:10002400789418B3002708BB012B0F70000F04FD50
:1000340001E004D0107F102B18BBF3CF013019F46A
:10004400532F52950AC0023011F4532F06C00430C6
:1000540019F4522F529501C0522F5F70503011F491
:100064005FE320C0513011F456E01CC0523011F44B
:100074005BE518C0533011F45FE414C0543011F43C
:1000840056E610C0553011F45DE60CC0563011F43C
:100094005DE708C0573009F405C0583011F45FE734
:1000A40001C05FE652BB08952395F22FFF70FA302A
:1000B40089F4207F40E1240F203660F02227339515
:1000C400F32FFF703A3031F4307F40E1340F3C338A
:0A00D40008F03327F0E7F2BF18959B
:00000001FF
